{
    "_format": "hh-sol-artifact-1",
    "contractName": "Web3Mint",
    "sourceName": "contracts/Web3Mint.sol",
    "abi": [
        {
            "inputs": [],
            "stateMutability": "nonpayable",
            "type": "constructor"
        },
        {
            "anonymous": false,
            "inputs": [
                {
                    "indexed": true,
                    "internalType": "address",
                    "name": "owner",
                    "type": "address"
                },
                {
                    "indexed": true,
                    "internalType": "address",
                    "name": "approved",
                    "type": "address"
                },
                {
                    "indexed": true,
                    "internalType": "uint256",
                    "name": "tokenId",
                    "type": "uint256"
                }
            ],
            "name": "Approval",
            "type": "event"
        },
        {
            "anonymous": false,
            "inputs": [
                {
                    "indexed": true,
                    "internalType": "address",
                    "name": "owner",
                    "type": "address"
                },
                {
                    "indexed": true,
                    "internalType": "address",
                    "name": "operator",
                    "type": "address"
                },
                {
                    "indexed": false,
                    "internalType": "bool",
                    "name": "approved",
                    "type": "bool"
                }
            ],
            "name": "ApprovalForAll",
            "type": "event"
        },
        {
            "anonymous": false,
            "inputs": [
                {
                    "indexed": true,
                    "internalType": "address",
                    "name": "from",
                    "type": "address"
                },
                {
                    "indexed": true,
                    "internalType": "address",
                    "name": "to",
                    "type": "address"
                },
                {
                    "indexed": true,
                    "internalType": "uint256",
                    "name": "tokenId",
                    "type": "uint256"
                }
            ],
            "name": "Transfer",
            "type": "event"
        },
        {
            "inputs": [
                {
                    "internalType": "address",
                    "name": "to",
                    "type": "address"
                },
                {
                    "internalType": "uint256",
                    "name": "tokenId",
                    "type": "uint256"
                }
            ],
            "name": "approve",
            "outputs": [],
            "stateMutability": "nonpayable",
            "type": "function"
        },
        {
            "inputs": [
                {
                    "internalType": "address",
                    "name": "owner",
                    "type": "address"
                }
            ],
            "name": "balanceOf",
            "outputs": [
                {
                    "internalType": "uint256",
                    "name": "",
                    "type": "uint256"
                }
            ],
            "stateMutability": "view",
            "type": "function"
        },
        {
            "inputs": [
                {
                    "internalType": "uint256",
                    "name": "tokenId",
                    "type": "uint256"
                }
            ],
            "name": "getApproved",
            "outputs": [
                {
                    "internalType": "address",
                    "name": "",
                    "type": "address"
                }
            ],
            "stateMutability": "view",
            "type": "function"
        },
        {
            "inputs": [
                {
                    "internalType": "address",
                    "name": "owner",
                    "type": "address"
                },
                {
                    "internalType": "address",
                    "name": "operator",
                    "type": "address"
                }
            ],
            "name": "isApprovedForAll",
            "outputs": [
                {
                    "internalType": "bool",
                    "name": "",
                    "type": "bool"
                }
            ],
            "stateMutability": "view",
            "type": "function"
        },
        {
            "inputs": [
                {
                    "internalType": "string",
                    "name": "name",
                    "type": "string"
                },
                {
                    "internalType": "string",
                    "name": "imageURI",
                    "type": "string"
                }
            ],
            "name": "mintIpfsNFT",
            "outputs": [],
            "stateMutability": "nonpayable",
            "type": "function"
        },
        {
            "inputs": [],
            "name": "name",
            "outputs": [
                {
                    "internalType": "string",
                    "name": "",
                    "type": "string"
                }
            ],
            "stateMutability": "view",
            "type": "function"
        },
        {
            "inputs": [
                {
                    "internalType": "uint256",
                    "name": "tokenId",
                    "type": "uint256"
                }
            ],
            "name": "ownerOf",
            "outputs": [
                {
                    "internalType": "address",
                    "name": "",
                    "type": "address"
                }
            ],
            "stateMutability": "view",
            "type": "function"
        },
        {
            "inputs": [
                {
                    "internalType": "address",
                    "name": "from",
                    "type": "address"
                },
                {
                    "internalType": "address",
                    "name": "to",
                    "type": "address"
                },
                {
                    "internalType": "uint256",
                    "name": "tokenId",
                    "type": "uint256"
                }
            ],
            "name": "safeTransferFrom",
            "outputs": [],
            "stateMutability": "nonpayable",
            "type": "function"
        },
        {
            "inputs": [
                {
                    "internalType": "address",
                    "name": "from",
                    "type": "address"
                },
                {
                    "internalType": "address",
                    "name": "to",
                    "type": "address"
                },
                {
                    "internalType": "uint256",
                    "name": "tokenId",
                    "type": "uint256"
                },
                {
                    "internalType": "bytes",
                    "name": "data",
                    "type": "bytes"
                }
            ],
            "name": "safeTransferFrom",
            "outputs": [],
            "stateMutability": "nonpayable",
            "type": "function"
        },
        {
            "inputs": [
                {
                    "internalType": "address",
                    "name": "operator",
                    "type": "address"
                },
                {
                    "internalType": "bool",
                    "name": "approved",
                    "type": "bool"
                }
            ],
            "name": "setApprovalForAll",
            "outputs": [],
            "stateMutability": "nonpayable",
            "type": "function"
        },
        {
            "inputs": [
                {
                    "internalType": "bytes4",
                    "name": "interfaceId",
                    "type": "bytes4"
                }
            ],
            "name": "supportsInterface",
            "outputs": [
                {
                    "internalType": "bool",
                    "name": "",
                    "type": "bool"
                }
            ],
            "stateMutability": "view",
            "type": "function"
        },
        {
            "inputs": [],
            "name": "symbol",
            "outputs": [
                {
                    "internalType": "string",
                    "name": "",
                    "type": "string"
                }
            ],
            "stateMutability": "view",
            "type": "function"
        },
        {
            "inputs": [
                {
                    "internalType": "uint256",
                    "name": "_tokenId",
                    "type": "uint256"
                }
            ],
            "name": "tokenURI",
            "outputs": [
                {
                    "internalType": "string",
                    "name": "",
                    "type": "string"
                }
            ],
            "stateMutability": "view",
            "type": "function"
        },
        {
            "inputs": [
                {
                    "internalType": "address",
                    "name": "from",
                    "type": "address"
                },
                {
                    "internalType": "address",
                    "name": "to",
                    "type": "address"
                },
                {
                    "internalType": "uint256",
                    "name": "tokenId",
                    "type": "uint256"
                }
            ],
            "name": "transferFrom",
            "outputs": [],
            "stateMutability": "nonpayable",
            "type": "function"
        }
    ],
    "bytecode": "0x60806040523480156200001157600080fd5b506040518060400160405280600381526020017f4e465400000000000000000000000000000000000000000000000000000000008152506040518060400160405280600381526020017f6e6674000000000000000000000000000000000000000000000000000000000081525081600090816200008f91906200043b565b508060019081620000a191906200043b565b505050620000ef6040518060400160405280601881526020017f54686973206973206d79204e465420636f6e74726163742e0000000000000000815250620000f560201b62000ab21760201c565b620005d5565b62000195816040516024016200010c9190620005b1565b6040516020818303038152906040527f41304fac000000000000000000000000000000000000000000000000000000007bffffffffffffffffffffffffffffffffffffffffffffffffffffffff19166020820180517bffffffffffffffffffffffffffffffffffffffffffffffffffffffff83818316178352505050506200019860201b60201c565b50565b60008151905060006a636f6e736f6c652e6c6f679050602083016000808483855afa5050505050565b600081519050919050565b7f4e487b7100000000000000000000000000000000000000000000000000000000600052604160045260246000fd5b7f4e487b7100000000000000000000000000000000000000000000000000000000600052602260045260246000fd5b600060028204905060018216806200024357607f821691505b602082108103620002595762000258620001fb565b5b50919050565b60008190508160005260206000209050919050565b60006020601f8301049050919050565b600082821b905092915050565b600060088302620002c37fffffffffffffffffffffffffffffffffffffffffffffffffffffffffffffffff8262000284565b620002cf868362000284565b95508019841693508086168417925050509392505050565b6000819050919050565b6000819050919050565b60006200031c620003166200031084620002e7565b620002f1565b620002e7565b9050919050565b6000819050919050565b6200033883620002fb565b62000350620003478262000323565b84845462000291565b825550505050565b600090565b6200036762000358565b620003748184846200032d565b505050565b5b818110156200039c57620003906000826200035d565b6001810190506200037a565b5050565b601f821115620003eb57620003b5816200025f565b620003c08462000274565b81016020851015620003d0578190505b620003e8620003df8562000274565b83018262000379565b50505b505050565b600082821c905092915050565b60006200041060001984600802620003f0565b1980831691505092915050565b60006200042b8383620003fd565b9150826002028217905092915050565b6200044682620001c1565b67ffffffffffffffff811115620004625762000461620001cc565b5b6200046e82546200022a565b6200047b828285620003a0565b600060209050601f831160018114620004b357600084156200049e578287015190505b620004aa85826200041d565b8655506200051a565b601f198416620004c3866200025f565b60005b82811015620004ed57848901518255600182019150602085019450602081019050620004c6565b868310156200050d578489015162000509601f891682620003fd565b8355505b6001600288020188555050505b505050505050565b600082825260208201905092915050565b60005b838110156200055357808201518184015260208101905062000536565b60008484015250505050565b6000601f19601f8301169050919050565b60006200057d82620001c1565b62000589818562000522565b93506200059b81856020860162000533565b620005a6816200055f565b840191505092915050565b60006020820190508181036000830152620005cd818462000570565b905092915050565b612fb580620005e56000396000f3fe608060405234801561001057600080fd5b50600436106100ea5760003560e01c806370a082311161008c578063b88d4fde11610066578063b88d4fde1461025b578063c87b56dd14610277578063e985e9c5146102a7578063eb00195d146102d7576100ea565b806370a08231146101f157806395d89b4114610221578063a22cb4651461023f576100ea565b8063095ea7b3116100c8578063095ea7b31461016d57806323b872dd1461018957806342842e0e146101a55780636352211e146101c1576100ea565b806301ffc9a7146100ef57806306fdde031461011f578063081812fc1461013d575b600080fd5b61010960048036038101906101049190611a45565b6102f3565b6040516101169190611a8d565b60405180910390f35b6101276103d5565b6040516101349190611b38565b60405180910390f35b61015760048036038101906101529190611b90565b610467565b6040516101649190611bfe565b60405180910390f35b61018760048036038101906101829190611c45565b6104ad565b005b6101a3600480360381019061019e9190611c85565b6105c4565b005b6101bf60048036038101906101ba9190611c85565b610624565b005b6101db60048036038101906101d69190611b90565b610644565b6040516101e89190611bfe565b60405180910390f35b61020b60048036038101906102069190611cd8565b6106f5565b6040516102189190611d14565b60405180910390f35b6102296107ac565b6040516102369190611b38565b60405180910390f35b61025960048036038101906102549190611d5b565b61083e565b005b61027560048036038101906102709190611ed0565b610854565b005b610291600480360381019061028c9190611b90565b6108b6565b60405161029e9190611b38565b60405180910390f35b6102c160048036038101906102bc9190611f53565b610966565b6040516102ce9190611a8d565b60405180910390f35b6102f160048036038101906102ec9190612034565b6109fa565b005b60007f80ac58cd000000000000000000000000000000000000000000000000000000007bffffffffffffffffffffffffffffffffffffffffffffffffffffffff1916827bffffffffffffffffffffffffffffffffffffffffffffffffffffffff191614806103be57507f5b5e139f000000000000000000000000000000000000000000000000000000007bffffffffffffffffffffffffffffffffffffffffffffffffffffffff1916827bffffffffffffffffffffffffffffffffffffffffffffffffffffffff1916145b806103ce57506103cd82610b4b565b5b9050919050565b6060600080546103e4906120db565b80601f0160208091040260200160405190810160405280929190818152602001828054610410906120db565b801561045d5780601f106104325761010080835404028352916020019161045d565b820191906000526020600020905b81548152906001019060200180831161044057829003601f168201915b5050505050905090565b600061047282610bb5565b6004600083815260200190815260200160002060009054906101000a900473ffffffffffffffffffffffffffffffffffffffff169050919050565b60006104b882610644565b90508073ffffffffffffffffffffffffffffffffffffffff168373ffffffffffffffffffffffffffffffffffffffff1603610528576040517f08c379a000000000000000000000000000000000000000000000000000000000815260040161051f9061217e565b60405180910390fd5b8073ffffffffffffffffffffffffffffffffffffffff16610547610c00565b73ffffffffffffffffffffffffffffffffffffffff161480610576575061057581610570610c00565b610966565b5b6105b5576040517f08c379a00000000000000000000000000000000000000000000000000000000081526004016105ac90612210565b60405180910390fd5b6105bf8383610c08565b505050565b6105d56105cf610c00565b82610cc1565b610614576040517f08c379a000000000000000000000000000000000000000000000000000000000815260040161060b906122a2565b60405180910390fd5b61061f838383610d56565b505050565b61063f83838360405180602001604052806000815250610854565b505050565b6000806002600084815260200190815260200160002060009054906101000a900473ffffffffffffffffffffffffffffffffffffffff169050600073ffffffffffffffffffffffffffffffffffffffff168173ffffffffffffffffffffffffffffffffffffffff16036106ec576040517f08c379a00000000000000000000000000000000000000000000000000000000081526004016106e39061230e565b60405180910390fd5b80915050919050565b60008073ffffffffffffffffffffffffffffffffffffffff168273ffffffffffffffffffffffffffffffffffffffff1603610765576040517f08c379a000000000000000000000000000000000000000000000000000000000815260040161075c906123a0565b60405180910390fd5b600360008373ffffffffffffffffffffffffffffffffffffffff1673ffffffffffffffffffffffffffffffffffffffff168152602001908152602001600020549050919050565b6060600180546107bb906120db565b80601f01602080910402602001604051908101604052809291908181526020018280546107e7906120db565b80156108345780601f1061080957610100808354040283529160200191610834565b820191906000526020600020905b81548152906001019060200180831161081757829003601f168201915b5050505050905090565b610850610849610c00565b8383610fbc565b5050565b61086561085f610c00565b83610cc1565b6108a4576040517f08c379a000000000000000000000000000000000000000000000000000000000815260040161089b906122a2565b60405180910390fd5b6108b084848484611128565b50505050565b60606000610936600684815481106108d1576108d06123c0565b5b90600052602060002090600202016000016108eb85611184565b600686815481106108ff576108fe6123c0565b5b906000526020600020906002020160010160405160200161092293929190612619565b6040516020818303038152906040526112e4565b905060008160405160200161094b91906126c2565b60405160208183030381529060405290508092505050919050565b6000600560008473ffffffffffffffffffffffffffffffffffffffff1673ffffffffffffffffffffffffffffffffffffffff16815260200190815260200160002060008373ffffffffffffffffffffffffffffffffffffffff1673ffffffffffffffffffffffffffffffffffffffff16815260200190815260200160002060009054906101000a900460ff16905092915050565b6000610a06600761147b565b9050610a123382611489565b600660405180604001604052808581526020018481525090806001815401808255809150506001900390600052602060002090600202016000909190919091506000820151816000019081610a67919061287b565b506020820151816001019081610a7d919061287b565b505050610aa3604051806060016040528060258152602001612f1b6025913982336114a7565b610aad6007611546565b505050565b610b4881604051602401610ac69190611b38565b6040516020818303038152906040527f41304fac000000000000000000000000000000000000000000000000000000007bffffffffffffffffffffffffffffffffffffffffffffffffffffffff19166020820180517bffffffffffffffffffffffffffffffffffffffffffffffffffffffff838183161783525050505061155c565b50565b60007f01ffc9a7000000000000000000000000000000000000000000000000000000007bffffffffffffffffffffffffffffffffffffffffffffffffffffffff1916827bffffffffffffffffffffffffffffffffffffffffffffffffffffffff1916149050919050565b610bbe81611585565b610bfd576040517f08c379a0000000000000000000000000000000000000000000000000000000008152600401610bf49061230e565b60405180910390fd5b50565b600033905090565b816004600083815260200190815260200160002060006101000a81548173ffffffffffffffffffffffffffffffffffffffff021916908373ffffffffffffffffffffffffffffffffffffffff160217905550808273ffffffffffffffffffffffffffffffffffffffff16610c7b83610644565b73ffffffffffffffffffffffffffffffffffffffff167f8c5be1e5ebec7d5bd14f71427d1e84f3dd0314c0f7b2291e5b200ac8c7c3b92560405160405180910390a45050565b600080610ccd83610644565b90508073ffffffffffffffffffffffffffffffffffffffff168473ffffffffffffffffffffffffffffffffffffffff161480610d0f5750610d0e8185610966565b5b80610d4d57508373ffffffffffffffffffffffffffffffffffffffff16610d3584610467565b73ffffffffffffffffffffffffffffffffffffffff16145b91505092915050565b8273ffffffffffffffffffffffffffffffffffffffff16610d7682610644565b73ffffffffffffffffffffffffffffffffffffffff1614610dcc576040517f08c379a0000000000000000000000000000000000000000000000000000000008152600401610dc3906129bf565b60405180910390fd5b600073ffffffffffffffffffffffffffffffffffffffff168273ffffffffffffffffffffffffffffffffffffffff1603610e3b576040517f08c379a0000000000000000000000000000000000000000000000000000000008152600401610e3290612a51565b60405180910390fd5b610e468383836115f1565b610e51600082610c08565b6001600360008573ffffffffffffffffffffffffffffffffffffffff1673ffffffffffffffffffffffffffffffffffffffff1681526020019081526020016000206000828254610ea19190612aa0565b925050819055506001600360008473ffffffffffffffffffffffffffffffffffffffff1673ffffffffffffffffffffffffffffffffffffffff1681526020019081526020016000206000828254610ef89190612ad4565b92505081905550816002600083815260200190815260200160002060006101000a81548173ffffffffffffffffffffffffffffffffffffffff021916908373ffffffffffffffffffffffffffffffffffffffff160217905550808273ffffffffffffffffffffffffffffffffffffffff168473ffffffffffffffffffffffffffffffffffffffff167fddf252ad1be2c89b69c2b068fc378daa952ba7f163c4a11628f55a4df523b3ef60405160405180910390a4610fb78383836115f6565b505050565b8173ffffffffffffffffffffffffffffffffffffffff168373ffffffffffffffffffffffffffffffffffffffff160361102a576040517f08c379a000000000000000000000000000000000000000000000000000000000815260040161102190612b54565b60405180910390fd5b80600560008573ffffffffffffffffffffffffffffffffffffffff1673ffffffffffffffffffffffffffffffffffffffff16815260200190815260200160002060008473ffffffffffffffffffffffffffffffffffffffff1673ffffffffffffffffffffffffffffffffffffffff16815260200190815260200160002060006101000a81548160ff0219169083151502179055508173ffffffffffffffffffffffffffffffffffffffff168373ffffffffffffffffffffffffffffffffffffffff167f17307eab39ab6107e8899845ad3d59bd9653f200f220920489ca2b5937696c318360405161111b9190611a8d565b60405180910390a3505050565b611133848484610d56565b61113f848484846115fb565b61117e576040517f08c379a000000000000000000000000000000000000000000000000000000000815260040161117590612be6565b60405180910390fd5b50505050565b6060600082036111cb576040518060400160405280600181526020017f300000000000000000000000000000000000000000000000000000000000000081525090506112df565b600082905060005b600082146111fd5780806111e690612c06565b915050600a826111f69190612c7d565b91506111d3565b60008167ffffffffffffffff81111561121957611218611da5565b5b6040519080825280601f01601f19166020018201604052801561124b5781602001600182028036833780820191505090505b5090505b600085146112d8576001826112649190612aa0565b9150600a856112739190612cae565b603061127f9190612ad4565b60f81b818381518110611295576112946123c0565b5b60200101907effffffffffffffffffffffffffffffffffffffffffffffffffffffffffffff1916908160001a905350600a856112d19190612c7d565b945061124f565b8093505050505b919050565b60606000825190506000810361130c5760405180602001604052806000815250915050611476565b6000600360028361131d9190612ad4565b6113279190612c7d565b60046113339190612cdf565b905060006020826113449190612ad4565b67ffffffffffffffff81111561135d5761135c611da5565b5b6040519080825280601f01601f19166020018201604052801561138f5781602001600182028036833780820191505090505b5090506000604051806060016040528060408152602001612f40604091399050600181016020830160005b868110156114335760038101905062ffffff818a015116603f8160121c168401518060081b905060ff603f83600c1c1686015116810190508060081b905060ff603f8360061c1686015116810190508060081b905060ff603f831686015116810190508060e01b905080845260048401935050506113ba565b50600386066001811461144d576002811461145d57611468565b613d3d60f01b6002830352611468565b603d60f81b60018303525b508484525050819450505050505b919050565b600081600001549050919050565b6114a3828260405180602001604052806000815250611782565b5050565b6115418383836040516024016114bf93929190612d21565b6040516020818303038152906040527f1c7ec448000000000000000000000000000000000000000000000000000000007bffffffffffffffffffffffffffffffffffffffffffffffffffffffff19166020820180517bffffffffffffffffffffffffffffffffffffffffffffffffffffffff838183161783525050505061155c565b505050565b6001816000016000828254019250508190555050565b60008151905060006a636f6e736f6c652e6c6f679050602083016000808483855afa5050505050565b60008073ffffffffffffffffffffffffffffffffffffffff166002600084815260200190815260200160002060009054906101000a900473ffffffffffffffffffffffffffffffffffffffff1673ffffffffffffffffffffffffffffffffffffffff1614159050919050565b505050565b505050565b600061161c8473ffffffffffffffffffffffffffffffffffffffff166117dd565b15611775578373ffffffffffffffffffffffffffffffffffffffff1663150b7a02611645610c00565b8786866040518563ffffffff1660e01b81526004016116679493929190612db4565b6020604051808303816000875af19250505080156116a357506040513d601f19601f820116820180604052508101906116a09190612e15565b60015b611725573d80600081146116d3576040519150601f19603f3d011682016040523d82523d6000602084013e6116d8565b606091505b50600081510361171d576040517f08c379a000000000000000000000000000000000000000000000000000000000815260040161171490612be6565b60405180910390fd5b805181602001fd5b63150b7a0260e01b7bffffffffffffffffffffffffffffffffffffffffffffffffffffffff1916817bffffffffffffffffffffffffffffffffffffffffffffffffffffffff19161491505061177a565b600190505b949350505050565b61178c8383611800565b61179960008484846115fb565b6117d8576040517f08c379a00000000000000000000000000000000000000000000000000000000081526004016117cf90612be6565b60405180910390fd5b505050565b6000808273ffffffffffffffffffffffffffffffffffffffff163b119050919050565b600073ffffffffffffffffffffffffffffffffffffffff168273ffffffffffffffffffffffffffffffffffffffff160361186f576040517f08c379a000000000000000000000000000000000000000000000000000000000815260040161186690612e8e565b60405180910390fd5b61187881611585565b156118b8576040517f08c379a00000000000000000000000000000000000000000000000000000000081526004016118af90612efa565b60405180910390fd5b6118c4600083836115f1565b6001600360008473ffffffffffffffffffffffffffffffffffffffff1673ffffffffffffffffffffffffffffffffffffffff16815260200190815260200160002060008282546119149190612ad4565b92505081905550816002600083815260200190815260200160002060006101000a81548173ffffffffffffffffffffffffffffffffffffffff021916908373ffffffffffffffffffffffffffffffffffffffff160217905550808273ffffffffffffffffffffffffffffffffffffffff16600073ffffffffffffffffffffffffffffffffffffffff167fddf252ad1be2c89b69c2b068fc378daa952ba7f163c4a11628f55a4df523b3ef60405160405180910390a46119d5600083836115f6565b5050565b6000604051905090565b600080fd5b600080fd5b60007fffffffff0000000000000000000000000000000000000000000000000000000082169050919050565b611a22816119ed565b8114611a2d57600080fd5b50565b600081359050611a3f81611a19565b92915050565b600060208284031215611a5b57611a5a6119e3565b5b6000611a6984828501611a30565b91505092915050565b60008115159050919050565b611a8781611a72565b82525050565b6000602082019050611aa26000830184611a7e565b92915050565b600081519050919050565b600082825260208201905092915050565b60005b83811015611ae2578082015181840152602081019050611ac7565b60008484015250505050565b6000601f19601f8301169050919050565b6000611b0a82611aa8565b611b148185611ab3565b9350611b24818560208601611ac4565b611b2d81611aee565b840191505092915050565b60006020820190508181036000830152611b528184611aff565b905092915050565b6000819050919050565b611b6d81611b5a565b8114611b7857600080fd5b50565b600081359050611b8a81611b64565b92915050565b600060208284031215611ba657611ba56119e3565b5b6000611bb484828501611b7b565b91505092915050565b600073ffffffffffffffffffffffffffffffffffffffff82169050919050565b6000611be882611bbd565b9050919050565b611bf881611bdd565b82525050565b6000602082019050611c136000830184611bef565b92915050565b611c2281611bdd565b8114611c2d57600080fd5b50565b600081359050611c3f81611c19565b92915050565b60008060408385031215611c5c57611c5b6119e3565b5b6000611c6a85828601611c30565b9250506020611c7b85828601611b7b565b9150509250929050565b600080600060608486031215611c9e57611c9d6119e3565b5b6000611cac86828701611c30565b9350506020611cbd86828701611c30565b9250506040611cce86828701611b7b565b9150509250925092565b600060208284031215611cee57611ced6119e3565b5b6000611cfc84828501611c30565b91505092915050565b611d0e81611b5a565b82525050565b6000602082019050611d296000830184611d05565b92915050565b611d3881611a72565b8114611d4357600080fd5b50565b600081359050611d5581611d2f565b92915050565b60008060408385031215611d7257611d716119e3565b5b6000611d8085828601611c30565b9250506020611d9185828601611d46565b9150509250929050565b600080fd5b600080fd5b7f4e487b7100000000000000000000000000000000000000000000000000000000600052604160045260246000fd5b611ddd82611aee565b810181811067ffffffffffffffff82111715611dfc57611dfb611da5565b5b80604052505050565b6000611e0f6119d9565b9050611e1b8282611dd4565b919050565b600067ffffffffffffffff821115611e3b57611e3a611da5565b5b611e4482611aee565b9050602081019050919050565b82818337600083830152505050565b6000611e73611e6e84611e20565b611e05565b905082815260208101848484011115611e8f57611e8e611da0565b5b611e9a848285611e51565b509392505050565b600082601f830112611eb757611eb6611d9b565b5b8135611ec7848260208601611e60565b91505092915050565b60008060008060808587031215611eea57611ee96119e3565b5b6000611ef887828801611c30565b9450506020611f0987828801611c30565b9350506040611f1a87828801611b7b565b925050606085013567ffffffffffffffff811115611f3b57611f3a6119e8565b5b611f4787828801611ea2565b91505092959194509250565b60008060408385031215611f6a57611f696119e3565b5b6000611f7885828601611c30565b9250506020611f8985828601611c30565b9150509250929050565b600067ffffffffffffffff821115611fae57611fad611da5565b5b611fb782611aee565b9050602081019050919050565b6000611fd7611fd284611f93565b611e05565b905082815260208101848484011115611ff357611ff2611da0565b5b611ffe848285611e51565b509392505050565b600082601f83011261201b5761201a611d9b565b5b813561202b848260208601611fc4565b91505092915050565b6000806040838503121561204b5761204a6119e3565b5b600083013567ffffffffffffffff811115612069576120686119e8565b5b61207585828601612006565b925050602083013567ffffffffffffffff811115612096576120956119e8565b5b6120a285828601612006565b9150509250929050565b7f4e487b7100000000000000000000000000000000000000000000000000000000600052602260045260246000fd5b600060028204905060018216806120f357607f821691505b602082108103612106576121056120ac565b5b50919050565b7f4552433732313a20617070726f76616c20746f2063757272656e74206f776e6560008201527f7200000000000000000000000000000000000000000000000000000000000000602082015250565b6000612168602183611ab3565b91506121738261210c565b604082019050919050565b600060208201905081810360008301526121978161215b565b9050919050565b7f4552433732313a20617070726f76652063616c6c6572206973206e6f7420746f60008201527f6b656e206f776e6572206e6f7220617070726f76656420666f7220616c6c0000602082015250565b60006121fa603e83611ab3565b91506122058261219e565b604082019050919050565b60006020820190508181036000830152612229816121ed565b9050919050565b7f4552433732313a2063616c6c6572206973206e6f7420746f6b656e206f776e6560008201527f72206e6f7220617070726f766564000000000000000000000000000000000000602082015250565b600061228c602e83611ab3565b915061229782612230565b604082019050919050565b600060208201905081810360008301526122bb8161227f565b9050919050565b7f4552433732313a20696e76616c696420746f6b656e2049440000000000000000600082015250565b60006122f8601883611ab3565b9150612303826122c2565b602082019050919050565b60006020820190508181036000830152612327816122eb565b9050919050565b7f4552433732313a2061646472657373207a65726f206973206e6f74206120766160008201527f6c6964206f776e65720000000000000000000000000000000000000000000000602082015250565b600061238a602983611ab3565b91506123958261232e565b604082019050919050565b600060208201905081810360008301526123b98161237d565b9050919050565b7f4e487b7100000000000000000000000000000000000000000000000000000000600052603260045260246000fd5b600081905092915050565b7f7b226e616d65223a202200000000000000000000000000000000000000000000600082015250565b6000612430600a836123ef565b915061243b826123fa565b600a82019050919050565b60008190508160005260206000209050919050565b60008154612468816120db565b61247281866123ef565b9450600182166000811461248d57600181146124a2576124d5565b60ff19831686528115158202860193506124d5565b6124ab85612446565b60005b838110156124cd578154818901526001820191506020810190506124ae565b838801955050505b50505092915050565b7f202d2d204e465420233a20000000000000000000000000000000000000000000600082015250565b6000612514600b836123ef565b915061251f826124de565b600b82019050919050565b600061253582611aa8565b61253f81856123ef565b935061254f818560208601611ac4565b80840191505092915050565b7f222c20226465736372697074696f6e223a2022416e2065706963204e4654222c60008201527f2022696d616765223a2022697066733a2f2f0000000000000000000000000000602082015250565b60006125b76032836123ef565b91506125c28261255b565b603282019050919050565b7f227d000000000000000000000000000000000000000000000000000000000000600082015250565b60006126036002836123ef565b915061260e826125cd565b600282019050919050565b600061262482612423565b9150612630828661245b565b915061263b82612507565b9150612647828561252a565b9150612652826125aa565b915061265e828461245b565b9150612669826125f6565b9150819050949350505050565b7f646174613a6170706c69636174696f6e2f6a736f6e3b6261736536342c000000600082015250565b60006126ac601d836123ef565b91506126b782612676565b601d82019050919050565b60006126cd8261269f565b91506126d9828461252a565b915081905092915050565b60006020601f8301049050919050565b600082821b905092915050565b6000600883026127317fffffffffffffffffffffffffffffffffffffffffffffffffffffffffffffffff826126f4565b61273b86836126f4565b95508019841693508086168417925050509392505050565b6000819050919050565b600061277861277361276e84611b5a565b612753565b611b5a565b9050919050565b6000819050919050565b6127928361275d565b6127a661279e8261277f565b848454612701565b825550505050565b600090565b6127bb6127ae565b6127c6818484612789565b505050565b5b818110156127ea576127df6000826127b3565b6001810190506127cc565b5050565b601f82111561282f5761280081612446565b612809846126e4565b81016020851015612818578190505b61282c612824856126e4565b8301826127cb565b50505b505050565b600082821c905092915050565b600061285260001984600802612834565b1980831691505092915050565b600061286b8383612841565b9150826002028217905092915050565b61288482611aa8565b67ffffffffffffffff81111561289d5761289c611da5565b5b6128a782546120db565b6128b28282856127ee565b600060209050601f8311600181146128e557600084156128d3578287015190505b6128dd858261285f565b865550612945565b601f1984166128f386612446565b60005b8281101561291b578489015182556001820191506020850194506020810190506128f6565b868310156129385784890151612934601f891682612841565b8355505b6001600288020188555050505b505050505050565b7f4552433732313a207472616e736665722066726f6d20696e636f72726563742060008201527f6f776e6572000000000000000000000000000000000000000000000000000000602082015250565b60006129a9602583611ab3565b91506129b48261294d565b604082019050919050565b600060208201905081810360008301526129d88161299c565b9050919050565b7f4552433732313a207472616e7366657220746f20746865207a65726f2061646460008201527f7265737300000000000000000000000000000000000000000000000000000000602082015250565b6000612a3b602483611ab3565b9150612a46826129df565b604082019050919050565b60006020820190508181036000830152612a6a81612a2e565b9050919050565b7f4e487b7100000000000000000000000000000000000000000000000000000000600052601160045260246000fd5b6000612aab82611b5a565b9150612ab683611b5a565b9250828203905081811115612ace57612acd612a71565b5b92915050565b6000612adf82611b5a565b9150612aea83611b5a565b9250828201905080821115612b0257612b01612a71565b5b92915050565b7f4552433732313a20617070726f766520746f2063616c6c657200000000000000600082015250565b6000612b3e601983611ab3565b9150612b4982612b08565b602082019050919050565b60006020820190508181036000830152612b6d81612b31565b9050919050565b7f4552433732313a207472616e7366657220746f206e6f6e20455243373231526560008201527f63656976657220696d706c656d656e7465720000000000000000000000000000602082015250565b6000612bd0603283611ab3565b9150612bdb82612b74565b604082019050919050565b60006020820190508181036000830152612bff81612bc3565b9050919050565b6000612c1182611b5a565b91507fffffffffffffffffffffffffffffffffffffffffffffffffffffffffffffffff8203612c4357612c42612a71565b5b600182019050919050565b7f4e487b7100000000000000000000000000000000000000000000000000000000600052601260045260246000fd5b6000612c8882611b5a565b9150612c9383611b5a565b925082612ca357612ca2612c4e565b5b828204905092915050565b6000612cb982611b5a565b9150612cc483611b5a565b925082612cd457612cd3612c4e565b5b828206905092915050565b6000612cea82611b5a565b9150612cf583611b5a565b9250828202612d0381611b5a565b91508282048414831517612d1a57612d19612a71565b5b5092915050565b60006060820190508181036000830152612d3b8186611aff565b9050612d4a6020830185611d05565b612d576040830184611bef565b949350505050565b600081519050919050565b600082825260208201905092915050565b6000612d8682612d5f565b612d908185612d6a565b9350612da0818560208601611ac4565b612da981611aee565b840191505092915050565b6000608082019050612dc96000830187611bef565b612dd66020830186611bef565b612de36040830185611d05565b8181036060830152612df58184612d7b565b905095945050505050565b600081519050612e0f81611a19565b92915050565b600060208284031215612e2b57612e2a6119e3565b5b6000612e3984828501612e00565b91505092915050565b7f4552433732313a206d696e7420746f20746865207a65726f2061646472657373600082015250565b6000612e78602083611ab3565b9150612e8382612e42565b602082019050919050565b60006020820190508181036000830152612ea781612e6b565b9050919050565b7f4552433732313a20746f6b656e20616c7265616479206d696e74656400000000600082015250565b6000612ee4601c83611ab3565b9150612eef82612eae565b602082019050919050565b60006020820190508181036000830152612f1381612ed7565b905091905056fe416e204e465420772f20494420257320686173206265656e206d696e74656420746f2025734142434445464748494a4b4c4d4e4f505152535455565758595a6162636465666768696a6b6c6d6e6f707172737475767778797a303132333435363738392b2fa26469706673582212204bb7ffde590727129e6f4fa3cb4ce34a82064e2b2da390d2dfb3ba1e029c6d2264736f6c63430008110033",
    "linkReferences": {},
    "deployedLinkReferences": {}
}